{
  "_format": "hh-sol-artifact-1",
  "contractName": "HerbTrace",
  "sourceName": "contracts/HerbTrace.sol",
  "abi": [
    {
      "inputs": [],
      "stateMutability": "nonpayable",
      "type": "constructor"
    },
    {
      "anonymous": false,
      "inputs": [
        {
          "indexed": true,
          "internalType": "address",
          "name": "auditor",
          "type": "address"
        },
        {
          "indexed": true,
          "internalType": "bytes32",
          "name": "id",
          "type": "bytes32"
        }
      ],
      "name": "AuditChecked",
      "type": "event"
    },
    {
      "anonymous": false,
      "inputs": [
        {
          "indexed": true,
          "internalType": "address",
          "name": "auditor",
          "type": "address"
        }
      ],
      "name": "AuditorAdded",
      "type": "event"
    },
    {
      "anonymous": false,
      "inputs": [
        {
          "indexed": true,
          "internalType": "bytes32",
          "name": "id",
          "type": "bytes32"
        },
        {
          "indexed": true,
          "internalType": "bytes32",
          "name": "hash",
          "type": "bytes32"
        },
        {
          "indexed": true,
          "internalType": "address",
          "name": "sender",
          "type": "address"
        }
      ],
      "name": "ProofAnchored",
      "type": "event"
    },
    {
      "inputs": [
        {
          "internalType": "address",
          "name": "_auditor",
          "type": "address"
        }
      ],
      "name": "addAuditor",
      "outputs": [],
      "stateMutability": "nonpayable",
      "type": "function"
    },
    {
      "inputs": [
        {
          "internalType": "bytes32",
          "name": "id",
          "type": "bytes32"
        },
        {
          "internalType": "bytes32",
          "name": "hash",
          "type": "bytes32"
        }
      ],
      "name": "anchor",
      "outputs": [],
      "stateMutability": "nonpayable",
      "type": "function"
    },
    {
      "inputs": [
        {
          "internalType": "bytes32",
          "name": "id",
          "type": "bytes32"
        }
      ],
      "name": "auditCheck",
      "outputs": [],
      "stateMutability": "nonpayable",
      "type": "function"
    },
    {
      "inputs": [
        {
          "internalType": "address",
          "name": "",
          "type": "address"
        }
      ],
      "name": "auditors",
      "outputs": [
        {
          "internalType": "bool",
          "name": "",
          "type": "bool"
        }
      ],
      "stateMutability": "view",
      "type": "function"
    },
    {
      "inputs": [
        {
          "internalType": "bytes32",
          "name": "id",
          "type": "bytes32"
        }
      ],
      "name": "getProofs",
      "outputs": [
        {
          "internalType": "bytes32[]",
          "name": "",
          "type": "bytes32[]"
        }
      ],
      "stateMutability": "view",
      "type": "function"
    },
    {
      "inputs": [],
      "name": "owner",
      "outputs": [
        {
          "internalType": "address",
          "name": "",
          "type": "address"
        }
      ],
      "stateMutability": "view",
      "type": "function"
    },
    {
      "inputs": [
        {
          "internalType": "bytes32",
          "name": "id",
          "type": "bytes32"
        },
        {
          "internalType": "bytes32",
          "name": "hash",
          "type": "bytes32"
        }
      ],
      "name": "verify",
      "outputs": [
        {
          "internalType": "bool",
          "name": "",
          "type": "bool"
        }
      ],
      "stateMutability": "view",
      "type": "function"
    }
  ],
  "bytecode": "0x608060405234801561001057600080fd5b5033600260006101000a81548173ffffffffffffffffffffffffffffffffffffffff021916908373ffffffffffffffffffffffffffffffffffffffff1602179055506109a9806100616000396000f3fe608060405234801561001057600080fd5b506004361061007d5760003560e01c80638da5cb5b1161005b5780638da5cb5b14610112578063a21f3c6a14610130578063a506a5ba1461014c578063e429cef1146101685761007d565b806347f9aa9f146100825780634e8fee00146100b25780637fb58537146100e2575b600080fd5b61009c6004803603810190610097919061060e565b610184565b6040516100a99190610656565b60405180910390f35b6100cc60048036038101906100c791906106a7565b6101a4565b6040516100d99190610656565b60405180910390f35b6100fc60048036038101906100f791906106e7565b6101e0565b60405161010991906107d2565b60405180910390f35b61011a61024a565b6040516101279190610803565b60405180910390f35b61014a600480360381019061014591906106a7565b610270565b005b610166600480360381019061016191906106e7565b6103aa565b005b610182600480360381019061017d919061060e565b61047d565b005b60036020528060005260406000206000915054906101000a900460ff1681565b600060016000848152602001908152602001600020600083815260200190815260200160002060009054906101000a900460ff16905092915050565b606060008083815260200190815260200160002080548060200260200160405190810160405280929190818152602001828054801561023e57602002820191906000526020600020905b81548152602001906001019080831161022a575b50505050509050919050565b600260009054906101000a900473ffffffffffffffffffffffffffffffffffffffff1681565b6000801b81036102b5576040517f08c379a00000000000000000000000000000000000000000000000000000000081526004016102ac9061087b565b60405180910390fd5b60016000838152602001908152602001600020600082815260200190815260200160002060009054906101000a900460ff166103a6576000808381526020019081526020016000208190806001815401808255809150506001900390600052602060002001600090919091909150556001806000848152602001908152602001600020600083815260200190815260200160002060006101000a81548160ff0219169083151502179055503373ffffffffffffffffffffffffffffffffffffffff1681837ff3cbfed3439be1cfd8855cd673289244e99523305dc7d46a199f71d3ce97e7f060405160405180910390a45b5050565b600360003373ffffffffffffffffffffffffffffffffffffffff1673ffffffffffffffffffffffffffffffffffffffff16815260200190815260200160002060009054906101000a900460ff16610436576040517f08c379a000000000000000000000000000000000000000000000000000000000815260040161042d906108e7565b60405180910390fd5b803373ffffffffffffffffffffffffffffffffffffffff167fd9f1da37edef003712012fea7a022d22d72195136956df5cdd094494c283896960405160405180910390a350565b600260009054906101000a900473ffffffffffffffffffffffffffffffffffffffff1673ffffffffffffffffffffffffffffffffffffffff163373ffffffffffffffffffffffffffffffffffffffff161461050d576040517f08c379a000000000000000000000000000000000000000000000000000000000815260040161050490610953565b60405180910390fd5b6001600360008373ffffffffffffffffffffffffffffffffffffffff1673ffffffffffffffffffffffffffffffffffffffff16815260200190815260200160002060006101000a81548160ff0219169083151502179055508073ffffffffffffffffffffffffffffffffffffffff167f2c31044378cc14466459f09320dd4057d7ad6e99b194c0800c78227383a2529660405160405180910390a250565b600080fd5b600073ffffffffffffffffffffffffffffffffffffffff82169050919050565b60006105db826105b0565b9050919050565b6105eb816105d0565b81146105f657600080fd5b50565b600081359050610608816105e2565b92915050565b600060208284031215610624576106236105ab565b5b6000610632848285016105f9565b91505092915050565b60008115159050919050565b6106508161063b565b82525050565b600060208201905061066b6000830184610647565b92915050565b6000819050919050565b61068481610671565b811461068f57600080fd5b50565b6000813590506106a18161067b565b92915050565b600080604083850312156106be576106bd6105ab565b5b60006106cc85828601610692565b92505060206106dd85828601610692565b9150509250929050565b6000602082840312156106fd576106fc6105ab565b5b600061070b84828501610692565b91505092915050565b600081519050919050565b600082825260208201905092915050565b6000819050602082019050919050565b61074981610671565b82525050565b600061075b8383610740565b60208301905092915050565b6000602082019050919050565b600061077f82610714565b610789818561071f565b935061079483610730565b8060005b838110156107c55781516107ac888261074f565b97506107b783610767565b925050600181019050610798565b5085935050505092915050565b600060208201905081810360008301526107ec8184610774565b905092915050565b6107fd816105d0565b82525050565b600060208201905061081860008301846107f4565b92915050565b600082825260208201905092915050565b7f496e76616c696420686173680000000000000000000000000000000000000000600082015250565b6000610865600c8361081e565b91506108708261082f565b602082019050919050565b6000602082019050818103600083015261089481610858565b9050919050565b7f4e6f742061756469746f72000000000000000000000000000000000000000000600082015250565b60006108d1600b8361081e565b91506108dc8261089b565b602082019050919050565b60006020820190508181036000830152610900816108c4565b9050919050565b7f4e6f74206f776e65720000000000000000000000000000000000000000000000600082015250565b600061093d60098361081e565b915061094882610907565b602082019050919050565b6000602082019050818103600083015261096c81610930565b905091905056fea2646970667358221220a8d45b2bdeeb85ac41b0bf1c51ed254a5cc945ea788ed21a0156c40867a4535f64736f6c63430008140033",
  "linkReferences": {},
  "deployedLinkReferences": {}
}